:100CB9003F065B4F666D7D077F6F777C395E797183
:100CC9000040761E7038375C733E783D6750376E4A
:100CD900BF86DBCFE6EDFD87FFEF46010204081072
:030CE90020408028
:100E18000C5C1F1C1F1E1F1E1F1F1E1F1E1F0841AC
:0E0E28000000000000000000044B0102030463
:10002600E4F593F594F591F592F595F596F5B1F518
:10003600B2F5B3F5B4F5C9F5CAF5CBF5CCF5E1F5EE
:10004600E2759D0C75BCE0F568F553F549F555F577
:1000560056F535F536758E80758CA9758A9AD2A9AE
:10006600D28C7F01120BF4D2AF7F08782D7410F674
:1000760008DFFC7F08120C38C2D5753B01753C07BA
:10008600753DE3753F01E52BC3943C4002D2D5E5AF
:1000960037C3943C4002D2D5E540C394184002D2FF
:1000A600D530D50BE4F52BF53775400C120B1BAF8D
:1000B60053120D48E4F53EF551753801F550F53902
:1000C600F53AF54FF54AF52C3001FDE53EB4010A47
:1000D6000556E556700905558005E4F555F556C3F0
:1000E600E55694D0E55594074003120E54C3E556E1
:1000F6009428E555942340057F02120ABAC201E509
:1001060051D39400400EE551940550080536E53666
:1001160070020535C3E5369420E535944E4007E474
:10012600F551F535F536055BE55B7002055AC39466
:10013600E8E55A94034010E4F55AF55B12000E12F6
:100146000C38AF53120D48052CE52CC394324006EB
:10015600E4F52C1209D7E53970030200CEB41B036F
:10016600E4F553E539B41C03755301E539B41D03B1
:10017600755302E539B41E11E5536403600BE53887
:10018600B40106755303E4F549E539B41F12E55386
:100196006404600CE55364036006E538640160138B
:1001A600E539B41F14E553B4030FE549700BE53880
:1001B600B40106755304E4F549E539C39411402D9D
:1001C600E539D3941A5026E553B40321E549C3947F
:1001D60004501AE538B40115E53924EFFF743125CA
:1001E60049F8A60774412549F8A6070549E539C324
:1001F6009411402FE539D3941A5028E553B40423BB
:10020600E549C39408501CE538B40117E53924EFD5
:10021600FF742D2549F8A60774412549F8A6070558
:1002260049801BE539C394114014E539D394145021
:100236000DE55364036007AD53AF39120649E5393E
:10024600641E7070E5536403706AE5496404706463
:10025600E5386401705EE54B6541703FE54C6542EB
:100266007039E54D65437033E54E6544702DC29790
:10027600C296C2C7C2C6AF40FE12095B120E70AF6D
:10028600377E0012095B120E70AF2B7E0012095BDF
:10029600120E70753E01E4F55180197F01120ABAFB
:1002A6000551E551C3940540087F04120ABAE4F5E6
:1002B60038E4F549E539641F6003020340E55364F9
:1002C600047077E54964087071E5386401706BE580
:1002D6004B6541704CE54C65427046E54D65437093
:1002E60040E54E6544703AF551120E54E5457013DB
:1002F600E546700FE547700BE54870077F03120A65
:10030600BA8037C297C296C2C7C2C685454B8546D4
:100316004C85474D85484E7FDC120EE875530380A9
:10032600197F01120ABA0551E551C3940540087FA9
:1003360004120ABAE4F538E4F549E5396420704850
:10034600E553B40317E549D394004010E538B401EA
:100356000B74402549F8E4F67430801AE553B4046A
:100366001EE549D394004017E538B40112744025C0
:1003760049F8E4F6742C2549F8761115498009E404
:10038600F53E120E54E4F553AF53120D48E4F53919
:030396000200CE94
:10000E00E540700FE537700BE52B70077D017F1310
:04001E00120649225B
:100649008F088D09E5097065E508B41112E540B414
:100659001709E4F5407D017F1380140540804BE5BF
:1006690008B41214E540700C7540177D017F14120F
:100679000649803615408032E508B41314E537B4CD
:100689003B0BE4F537FD7F11120649801A053780C7
:1006990016E508B41414E537700B75373BFD7F1266
:1006A90012064980021537E4F52B020B1BE5096494
:1006B900017069E508B41114E53BB40C0C053DE57E
:1006C9003D7002053C753B0122053B22E508B41249
:1006D90014E53BB4010CE53D153D7002153C753B35
:1006E9000C22153B22E508B41316745B253BF8E68A
:1006F900B53F0A753F017D017F11020649053F2279
:10070900E508B41417E53FB401107D017F12120604
:0D07190049745B253BF8E6F53F22153F22B1
:100ABA00BF0108C297D296D2C7D2C6BF0208D29740
:100ACA00C296D2C7D2C6BF0308D297D296C2C7D29D
:100ADA00C6EF6404703AC2977FFA120EE87FFA12E0
:100AEA000EE8D297C2967FFA120EE87FFA120EE843
:100AFA00D296C2C77FFA120EE87FFA120EE8D2C760
:100B0A00C2C67FFA120EE87FFA120EE8D2C680C673
:010B1A0022B8
:100E5400D297D296D2C7D2C6E4F541F542F543F50E
:0C0E640044F545F546F547F548F54922F0
:100ED700E4FEEF25E0FF92C0D2C3C2C30EBE08F204
:010EE70022E8
:100DA000E568900CE493F4FF120ED7742D2568F8D3
:100DB000E6900CB993FF120ED7D2CCC2CC0568E5F1
:0A0DC00068C394084003E4F56822BC
:03000B00020DF3F0
:100DF300C0E0C083C082C0D075D000C000C006C0B0
:100E030007120DA0D201D007D006D000D0D0D082D7
:050E1300D083D0E032A5
:0F0EE8007DA57C06ED1D70011C144C70F7DFF129
:010EF70022D8
:100EA700AD07AC06538EEF538EF7438E048CD6AF47
:0A0EB700058FD753AFFB438E1022C6
:100BF400BF020C438E017FD07EFF120EA7801BC262
:100C04008E538EFE438E405389BF5389CF758DFF1B
:100C1400758BD0C2AB538FFDD28EE598543F4440C0
:100C2400F598D2ACD29C53A23F43A280C200E4F513
:040C340054F55222FF
:060E70008B578A588959D6
:100E76001207266010F599D2002000FD740129F9A9
:060E8600E43AFA80EB22C1
:03002300020CECE0
:100CEC00C0E0C0D075D000C000309815C2987469AF
:100CFC002552F8A6990552E552C39420400375522B
:0F0D0C0000309904C299C200D000D0D0D0E0329C
:060850008B0C8A0D890EDD
:100856008B0F8A1089118B128A138914AB12AA1373
:10086600A914120726600D74012514F514E4351336
:10087600F51380E874FF2514F51474FF3513F5138A
:10088600D3851083851182E5149582E513958340FF
:1008960039AB0FAA10A911120726FFAB12AA13A98A
:1008A60014120726FEAB0F0511E511AA10700205FA
:1008B6001014F9EE12073FAB12E5141514AA1370C3
:1008C600021513F9EF12073F80B6AB0CAA0DA90E5D
:0108D60022FF
:04095B00AB07AA0636
:10095F00E4F508F509F50AF50B8E0A8F0BC3EE6463
:10096F008094805007C3E49BFBE49AFA7C007D0AD5
:10097F00AF03AE02120763ED2430FF0509E50970DE
:10098F00020508142421F8A6077C007D0AAF03AEE8
:10099F0002120763AA06AB07D3EB9400EA94005048
:1009AF00CBC3E50A64809480500E0509E5097002F7
:1009BF000508142421F8762D74212509F8E4F6FB97
:0709CF007A007921120850A3
:0109D60022FE
:1008D70001FD0215022E02470262027E029B02B848
:1008E70002D702F603170338035A037D03A103C592
:1008F70003EB04110438045F048804B104DB050525
:100907000530055B058605B305DF060C0639066667
:10091700069406C206EF071D074B077807A607D3FD
:100927000800082D0859088608B108DD09080932AA
:10093700095D098609AF09D709FF0A260A4D0A7317
:100947000A980ABC0AE00B030B250B470B680B88B8
:040957000BA80BC618
:100D1B00E4F5BDF5BEE5BC54E044084FF5BC00005E
:100D2B000000E5BC30E4FB53BCEFAFBDEF75F00446
:0D0D3B00A4FFAEF0E5BE5403FDEF4DFF2216
:040399008E0B8F0C2C
:10039D00C3E4950CF50C7410950BF50B750D0875E4
:1003AD000ED7850E82850D83D3740193950CE4933E
:1003BD00950B40057EFF7FFE22850E82850D83C342
:1003CD00748393950C748293950B50057EFF7FFF7C
:1003DD0022E4F5117F41FBEFC313FEE511C3132E8C
:1003ED00FE850E82850D8375F0021207B8C3740168
:1003FD0093950CE493950B4004AF0680028E110B80
:10040D00BB05D4850E82850D8375F002E5111207AB
:10041D00B8740193B50C07E493B50B02803F850EBC
:10042D0082850D8375F002EF1207B8740193B50C38
:10043D0008E493B50B03EF8026E511D39F4003022B
:10044D00050C0511850E82850D8375F002E51112DF
:10045D0007B8740193B50C13E493B50B0EE5117544
:10046D00F00AA485F00FF51002050C850E82850D9E
:10047D008375F002E5111207B8D3740193950CE45E
:10048D0093950B40B41511850E82850D8375F00281
:10049D00E5111207B8E493F50F740193F510E5110A
:1004AD002401FFE433FEEF25E0FFEE33FEE50E2FD2
:1004BD00F582E50D3EF583C37401939510FBE4932E
:1004CD00950FFAC3E50C9510FFE50B950FFE7C001B
:1004DD007D0A120751AD03AC02120763AB07750F0E
:1004ED0000851110AE0FAF107C007D0A1207518EE2
:1004FD000F8F10AF03EF2510F510E4350FF50FAE8C
:03050D000FAF101D
:0105100022C8
:100C38007B007A007908750F037F02120C7AE508A9
:100C4800C4540775F00AA4FFE508540F2FF52BE5E7
:100C580009C4540775F00AA4FFE509540F2FF537A6
:100C6800E50AC4540375F00AA4FFE50A540F2FF5EA
:010C7800403B
:010C79002258
:100B1B00E52B75F00A84C454F0FFE52B75F00A84BD
:100B2B00E5F02FF50AE53775F00A84C454F0FFE5BC
:100B3B003775F00A84E5F02FF50BE54075F00A8464
:100B4B00C454F0FFE54075F00A84E5F02FF50C7BFB
:0D0B5B00007A00790A7511037F02020D7502
:070F1500D291120F1CD290D3
:040F1C007F0BDFFE6A
:010F200022AE
:0D0F0800120F15C291120F1CC290020F1C97
:0A0F2100C291120F17D291020F1CAB
:0A0F2B00C291120F17C290020F1CB2
:08000300120F15C290020F1C40
:0A0EC100AC07120F087FA2120E37D3
:0C0ECB00120F15A29192D5C290020F1CCC
:020E3700AE0704
:100E39007D08EE30E704D2918002C291EE25E0FEF2
:0A0E4900120F17C290120F1CDDE813
:010E5300227C
:100E8C007D08D291D290120F1CEE25E0FE3091011C
:0A0E9C000EC290120F1CDDECAF0631
:010EA6002229
:100D7500120EC120D522AF04120E37120ECB20D58C
:100D850017120726FF120E37740129F9E43AFA12F1
:0B0D95000ECB20D503D511E9020F2181
:100C7A00120EC120D536AF04120E37120ECB20D574
:100C8A002B120F087FA3120E37120ECB20D51D127E
:100C9A000E8CEF12073F740129F9E43AFAE50F6462
:0F0CAA00016003120F2BD50FE6120003020F217A
:100EF80000010200030000000400000000000000E0
:040F35007F3CDFFE20
:010F39002295
:1009D700AE4F7580F0120F35E58054F0F54F7580F6
:1009E7000F120F35E580540F424F634FFFEE654FEF
:1009F700704CAE3A854F3AE53A6040C2D5EE700486
:100A0700D2D58012EEB53A0E054AE54AC394144092
:100A170005754A12D2D530D525E53AC4540F900E44
:100A2700F893FE6019E53A540F93FF6011EE25E045
:100A370025E0FEEF2E240CF5398003E4F54A758096
:010A4700FFAF
:010A4800228B
:100D48008F08E508B40303020BAEE508B4040302F8
:100D58000DCA120E54E5087003020B68E508B401C9
:0D0D680003020A49E508B402031205112236
:100B6800E540C3940A400AE54075F00A84F52D80F3
:100B780003752D10E54075F00A8485F02E752F1148
:100B8800E53775F00A84F530E53775F00A8485F0A5
:100B980031753211E52B75F00A84F533E52B75F0C4
:060BA8000A8485F03422EE
:100A4900AE3CAF3D7C037DE81207638F2DAE3CAF12
:100A59003D7C037DE81207637E007F64CFCDCFCE56
:100A6900CCCE1207638F2EAE3CAF3D7C007D641265
:100A790007637E007F0ACFCDCFCECCCE1207638F1E
:100A89002FAE3CAF3D7C007D0A1207638D30E53BFC
:100A990075F00A84F531E53B75F00A8485F032E595
:100AA9003F75F00A84F533E53F75F00A8485F03423
:010AB900221A
:100511007F02120D1B8E098F0AC3E5099404505303
:100521007C037DE81207638F2DAE09AF0A7C037D42
:10053100E81207637E007F64CFCDCFCECCCE120709
:10054100638F2EAE09AF0A7C007D641207637E00C3
:100551007F0ACFCDCFCECCCE1207638F2FAE09AF9E
:100561000A7C007D0A1207638D30E52D700F752D11
:1005710010800A7F04782D7411F608DFFC7F0312C6
:100581000D1B8E098F0A7F03120D1BEF250AF50A39
:10059100EE3509F5097F03120D1BEF250AF50AEE69
:1005A1003509F5097F03120D1BEF250AF50AEE3512
:1005B10009F509C394104003020648AF0AAE0912B7
:1005C10003998E098F0AC3E50A9496E509940040C0
:1005D10010C2D5746A250AF50A74FF3509F5098038
:1005E1000ED2D5C37496950AF50AE49509F509AEBC
:1005F10009AF0A7C037DE81207638F31AE09AF0AA8
:100601007C037DE81207637E007F64CFCDCFCECC23
:10061100CE1207638F32AE09AF0A7C007D641207E8
:10062100637E007F0ACFCDCFCECCCE120763EF24FD
:1006310020F533AE09AF0A7C007D0A1207638D34C1
:07064100E531700375311073
:01064800228F
:100BAE00752D10752E10752F107530107F04E549B8
:100BBE002404FDE433FCEFC39DEC6480F87480984C
:100BCE00500F743D2FF8E6FE742D2FF8A6060F80F9
:100BDE00DDE5492404FFEFC394085009742D2FF866
:050BEE0076110F80F1FB
:010BF30022DF
:100DCA007F04EFC39549500F74412FF8E6FE742D46
:100DDA002FF8A6060F80EBAF49EFC39408500974A9
:080DEA002D2FF876110F80F1A6
:010DF20022DE
:030000000207C430
:0C07C400787FE4F6D8FD75818802080BF0
:10072600BB010689828A83E0225002E722BBFE02D1
:09073600E32289828A83E4932204
:10073F00BB010689828A83F0225002F722BBFE0199
:02074F00F32293
:10075100EF8DF0A4A8F0CF8CF0A428CE8DF0A42EBC
:02076100FE2276
:10076300BC000BBE0029EF8DF084FFADF022E4CC7A
:10077300F875F008EF2FFFEE33FEEC33FCEE9DEC43
:10078300984005FCEE9DFE0FD5F0E9E4CEFD22ED89
:10079300F8F5F0EE8420D21CFEADF075F008EF2FD3
:1007A300FFED33FD4007985006D5F0F222C398FDC4
:0507B3000FD5F0EA2261
:0C07B800A42582F582E5F03583F583224C
:1007D000020026E493A3F8E493A34003F68001F219
:1007E00008DFF48029E493A3F85407240CC8C3332A
:1007F000C4540F4420C8834004F456800146F6DFF9
:10080000E4800B0102040810204080900E18E47E62
:10081000019360BCA3FF543F30E509541FFEE493ED
:10082000A360010ECF54C025E060A840B8E493A3B4
:10083000FAE493A3F8E493A3C8C582C8CAC583CADF
:10084000F0A3C8C582C8CAC583CADFE9DEE780BE97
:010E360000BB
:00000001FF
